{
  "_format": "hh-sol-artifact-1",
  "contractName": "Profiles",
  "sourceName": "contracts/Profiles.sol",
  "abi": [
    {
      "inputs": [
        {
          "internalType": "address",
          "name": "_hub",
          "type": "address"
        },
        {
          "internalType": "uint256",
          "name": "_scope",
          "type": "uint256"
        }
      ],
      "stateMutability": "nonpayable",
      "type": "constructor"
    },
    {
      "inputs": [],
      "name": "InvalidDataFormat",
      "type": "error"
    },
    {
      "inputs": [
        {
          "internalType": "address",
          "name": "owner",
          "type": "address"
        }
      ],
      "name": "OwnableInvalidOwner",
      "type": "error"
    },
    {
      "inputs": [
        {
          "internalType": "address",
          "name": "account",
          "type": "address"
        }
      ],
      "name": "OwnableUnauthorizedAccount",
      "type": "error"
    },
    {
      "inputs": [],
      "name": "UnauthorizedCaller",
      "type": "error"
    },
    {
      "anonymous": false,
      "inputs": [
        {
          "indexed": true,
          "internalType": "address",
          "name": "previousOwner",
          "type": "address"
        },
        {
          "indexed": true,
          "internalType": "address",
          "name": "newOwner",
          "type": "address"
        }
      ],
      "name": "OwnershipTransferred",
      "type": "event"
    },
    {
      "anonymous": false,
      "inputs": [
        {
          "indexed": true,
          "internalType": "uint256",
          "name": "newScope",
          "type": "uint256"
        }
      ],
      "name": "ScopeUpdated",
      "type": "event"
    },
    {
      "inputs": [],
      "name": "configId",
      "outputs": [
        {
          "internalType": "bytes32",
          "name": "",
          "type": "bytes32"
        }
      ],
      "stateMutability": "view",
      "type": "function"
    },
    {
      "inputs": [
        {
          "internalType": "address",
          "name": "target",
          "type": "address"
        },
        {
          "internalType": "bytes32",
          "name": "skillId",
          "type": "bytes32"
        }
      ],
      "name": "endorseSkillPrivately",
      "outputs": [],
      "stateMutability": "nonpayable",
      "type": "function"
    },
    {
      "inputs": [
        {
          "internalType": "address",
          "name": "target",
          "type": "address"
        },
        {
          "internalType": "bytes32",
          "name": "skillId",
          "type": "bytes32"
        }
      ],
      "name": "expertEndorseSkill",
      "outputs": [],
      "stateMutability": "nonpayable",
      "type": "function"
    },
    {
      "inputs": [
        {
          "internalType": "bytes32",
          "name": "",
          "type": "bytes32"
        },
        {
          "internalType": "bytes32",
          "name": "",
          "type": "bytes32"
        },
        {
          "internalType": "bytes",
          "name": "",
          "type": "bytes"
        }
      ],
      "name": "getConfigId",
      "outputs": [
        {
          "internalType": "bytes32",
          "name": "",
          "type": "bytes32"
        }
      ],
      "stateMutability": "view",
      "type": "function"
    },
    {
      "inputs": [
        {
          "internalType": "address",
          "name": "user",
          "type": "address"
        }
      ],
      "name": "getProfileUri",
      "outputs": [
        {
          "internalType": "string",
          "name": "",
          "type": "string"
        }
      ],
      "stateMutability": "view",
      "type": "function"
    },
    {
      "inputs": [
        {
          "internalType": "address",
          "name": "user",
          "type": "address"
        }
      ],
      "name": "getSkills",
      "outputs": [
        {
          "components": [
            {
              "internalType": "string",
              "name": "name",
              "type": "string"
            },
            {
              "internalType": "uint256",
              "name": "totalEndorsements",
              "type": "uint256"
            },
            {
              "internalType": "uint256",
              "name": "expertEndorsements",
              "type": "uint256"
            },
            {
              "internalType": "bool",
              "name": "isExpert",
              "type": "bool"
            }
          ],
          "internalType": "struct Profiles.Skill[4]",
          "name": "",
          "type": "tuple[4]"
        }
      ],
      "stateMutability": "view",
      "type": "function"
    },
    {
      "inputs": [
        {
          "internalType": "address",
          "name": "user",
          "type": "address"
        }
      ],
      "name": "getSuperEndorsedMatrix",
      "outputs": [
        {
          "components": [
            {
              "internalType": "address",
              "name": "endorser",
              "type": "address"
            },
            {
              "internalType": "uint8",
              "name": "x",
              "type": "uint8"
            },
            {
              "internalType": "uint8",
              "name": "y",
              "type": "uint8"
            },
            {
              "internalType": "string",
              "name": "message",
              "type": "string"
            }
          ],
          "internalType": "struct Profiles.SuperEndorsement[16]",
          "name": "",
          "type": "tuple[16]"
        }
      ],
      "stateMutability": "view",
      "type": "function"
    },
    {
      "inputs": [
        {
          "internalType": "bytes",
          "name": "output",
          "type": "bytes"
        },
        {
          "internalType": "bytes",
          "name": "userData",
          "type": "bytes"
        }
      ],
      "name": "onVerificationSuccess",
      "outputs": [],
      "stateMutability": "nonpayable",
      "type": "function"
    },
    {
      "inputs": [],
      "name": "owner",
      "outputs": [
        {
          "internalType": "address",
          "name": "",
          "type": "address"
        }
      ],
      "stateMutability": "view",
      "type": "function"
    },
    {
      "inputs": [],
      "name": "privacyEndorser",
      "outputs": [
        {
          "internalType": "address",
          "name": "",
          "type": "address"
        }
      ],
      "stateMutability": "view",
      "type": "function"
    },
    {
      "inputs": [],
      "name": "renounceOwnership",
      "outputs": [],
      "stateMutability": "nonpayable",
      "type": "function"
    },
    {
      "inputs": [],
      "name": "scope",
      "outputs": [
        {
          "internalType": "uint256",
          "name": "",
          "type": "uint256"
        }
      ],
      "stateMutability": "view",
      "type": "function"
    },
    {
      "inputs": [
        {
          "internalType": "bytes32",
          "name": "_configId",
          "type": "bytes32"
        }
      ],
      "name": "setConfigId",
      "outputs": [],
      "stateMutability": "nonpayable",
      "type": "function"
    },
    {
      "inputs": [
        {
          "internalType": "address",
          "name": "_endorser",
          "type": "address"
        }
      ],
      "name": "setPrivacyEndorser",
      "outputs": [],
      "stateMutability": "nonpayable",
      "type": "function"
    },
    {
      "inputs": [
        {
          "internalType": "string",
          "name": "uri",
          "type": "string"
        }
      ],
      "name": "setProfileUri",
      "outputs": [],
      "stateMutability": "nonpayable",
      "type": "function"
    },
    {
      "inputs": [
        {
          "internalType": "address",
          "name": "user",
          "type": "address"
        },
        {
          "internalType": "uint256",
          "name": "index",
          "type": "uint256"
        },
        {
          "internalType": "string",
          "name": "name",
          "type": "string"
        }
      ],
      "name": "setSkill",
      "outputs": [],
      "stateMutability": "nonpayable",
      "type": "function"
    },
    {
      "inputs": [
        {
          "internalType": "address",
          "name": "target",
          "type": "address"
        },
        {
          "internalType": "uint8",
          "name": "x",
          "type": "uint8"
        },
        {
          "internalType": "uint8",
          "name": "y",
          "type": "uint8"
        },
        {
          "internalType": "string",
          "name": "message",
          "type": "string"
        }
      ],
      "name": "setSuperEndorsement",
      "outputs": [],
      "stateMutability": "nonpayable",
      "type": "function"
    },
    {
      "inputs": [
        {
          "internalType": "address",
          "name": "newOwner",
          "type": "address"
        }
      ],
      "name": "transferOwnership",
      "outputs": [],
      "stateMutability": "nonpayable",
      "type": "function"
    },
    {
      "inputs": [
        {
          "internalType": "bytes",
          "name": "proofPayload",
          "type": "bytes"
        },
        {
          "internalType": "bytes",
          "name": "userContextData",
          "type": "bytes"
        }
      ],
      "name": "verifySelfProof",
      "outputs": [],
      "stateMutability": "nonpayable",
      "type": "function"
    }
  ],
  "bytecode": "0x60a060405234801561001057600080fd5b50604051613cc2380380613cc28339818101604052810190610032919061026d565b818161004261010860201b60201c565b600073ffffffffffffffffffffffffffffffffffffffff168173ffffffffffffffffffffffffffffffffffffffff16036100b45760006040517f1e4fbdf70000000000000000000000000000000000000000000000000000000081526004016100ab91906102bc565b60405180910390fd5b6100c38161011060201b60201c565b508173ffffffffffffffffffffffffffffffffffffffff1660808173ffffffffffffffffffffffffffffffffffffffff168152505080600181905550505050506102d7565b600033905090565b60008060009054906101000a900473ffffffffffffffffffffffffffffffffffffffff169050816000806101000a81548173ffffffffffffffffffffffffffffffffffffffff021916908373ffffffffffffffffffffffffffffffffffffffff1602179055508173ffffffffffffffffffffffffffffffffffffffff168173ffffffffffffffffffffffffffffffffffffffff167f8be0079c531659141344cd1fd0a4f28419497f9722a3daafe3b4186f6b6457e060405160405180910390a35050565b600080fd5b600073ffffffffffffffffffffffffffffffffffffffff82169050919050565b6000610204826101d9565b9050919050565b610214816101f9565b811461021f57600080fd5b50565b6000815190506102318161020b565b92915050565b6000819050919050565b61024a81610237565b811461025557600080fd5b50565b60008151905061026781610241565b92915050565b60008060408385031215610284576102836101d4565b5b600061029285828601610222565b92505060206102a385828601610258565b9150509250929050565b6102b6816101f9565b82525050565b60006020820190506102d160008301846102ad565b92915050565b6080516139c96102f960003960008181610c35015261180501526139c96000f3fe608060405234801561001057600080fd5b50600436106101215760003560e01c80639cafd5a5116100ad578063c385abae11610071578063c385abae146102de578063d161802b146102fa578063e63a06d514610316578063f2fde38b14610346578063f83411b21461036257610121565b80639cafd5a514610228578063ada1b31914610244578063b564eb2714610274578063c1f8d68814610292578063c380e7e5146102c257610121565b80636e62d0a8116100f45780636e62d0a8146101aa578063715018a6146101c85780638d2d8d6a146101d25780638da5cb5b146101ee578063944367801461020c57610121565b806306d3864e1461012657806311828a9714610142578063151705591461015e5780631f3301e11461018e575b600080fd5b610140600480360381019061013b9190612004565b610380565b005b61015c600480360381019061015791906120ab565b610470565b005b610178600480360381019061017391906120ab565b6104bc565b604051610185919061229b565b60405180910390f35b6101a860048036038101906101a391906122f3565b610701565b005b6101b2610c15565b6040516101bf919061234c565b60405180910390f35b6101d0610c1f565b005b6101ec60048036038101906101e79190612408565b610c33565b005b6101f6610cdf565b604051610203919061248f565b60405180910390f35b610226600480360381019061022191906122f3565b610d08565b005b610242600480360381019061023d91906124d6565b610f65565b005b61025e60048036038101906102599190612545565b61121e565b60405161026b91906125c3565b60405180910390f35b61027c61122c565b60405161028991906125c3565b60405180910390f35b6102ac60048036038101906102a791906120ab565b611232565b6040516102b99190612628565b60405180910390f35b6102dc60048036038101906102d79190612676565b611395565b005b6102f860048036038101906102f391906126f9565b61167a565b005b610314600480360381019061030f9190612786565b61168c565b005b610330600480360381019061032b91906120ab565b6118bf565b60405161033d919061294a565b60405180910390f35b610360600480360381019061035b91906120ab565b611b16565b005b61036a611b9c565b604051610377919061248f565b60405180910390f35b6004600061038c611bc2565b73ffffffffffffffffffffffffffffffffffffffff1673ffffffffffffffffffffffffffffffffffffffff16815260200190815260200160002060000160009054906101000a900460ff16610416576040517f08c379a000000000000000000000000000000000000000000000000000000000815260040161040d906129b8565b60405180910390fd5b8060046000610423611bc2565b73ffffffffffffffffffffffffffffffffffffffff1673ffffffffffffffffffffffffffffffffffffffff168152602001908152602001600020600101908161046c9190612be4565b5050565b610478611bca565b80600360006101000a81548173ffffffffffffffffffffffffffffffffffffffff021916908373ffffffffffffffffffffffffffffffffffffffff16021790555050565b6104c4611de1565b600460008373ffffffffffffffffffffffffffffffffffffffff1673ffffffffffffffffffffffffffffffffffffffff16815260200190815260200160002060000160009054906101000a900460ff16610553576040517f08c379a000000000000000000000000000000000000000000000000000000000815260040161054a90612d02565b60405180910390fd5b600460008373ffffffffffffffffffffffffffffffffffffffff1673ffffffffffffffffffffffffffffffffffffffff168152602001908152602001600020600801601080602002604051908101604052809291906000905b828210156106f6578382600202016040518060800160405290816000820160009054906101000a900473ffffffffffffffffffffffffffffffffffffffff1673ffffffffffffffffffffffffffffffffffffffff1673ffffffffffffffffffffffffffffffffffffffff1681526020016000820160149054906101000a900460ff1660ff1660ff1681526020016000820160159054906101000a900460ff1660ff1660ff16815260200160018201805461066590612a07565b80601f016020809104026020016040519081016040528092919081815260200182805461069190612a07565b80156106de5780601f106106b3576101008083540402835291602001916106de565b820191906000526020600020905b8154815290600101906020018083116106c157829003601f168201915b505050505081525050815260200190600101906105ac565b505050509050919050565b6004600061070d611bc2565b73ffffffffffffffffffffffffffffffffffffffff1673ffffffffffffffffffffffffffffffffffffffff16815260200190815260200160002060000160009054906101000a900460ff16610797576040517f08c379a000000000000000000000000000000000000000000000000000000000815260040161078e90612d6e565b60405180910390fd5b600460006107a3611bc2565b73ffffffffffffffffffffffffffffffffffffffff1673ffffffffffffffffffffffffffffffffffffffff168152602001908152602001600020600601600082815260200190815260200160002060030160009054906101000a900460ff16610841576040517f08c379a000000000000000000000000000000000000000000000000000000000815260040161083890612dda565b60405180910390fd5b600460008373ffffffffffffffffffffffffffffffffffffffff1673ffffffffffffffffffffffffffffffffffffffff16815260200190815260200160002060000160009054906101000a900460ff166108d0576040517f08c379a00000000000000000000000000000000000000000000000000000000081526004016108c790612e46565b60405180910390fd5b6000600460008473ffffffffffffffffffffffffffffffffffffffff1673ffffffffffffffffffffffffffffffffffffffff168152602001908152602001600020600701600061091e611bc2565b73ffffffffffffffffffffffffffffffffffffffff1673ffffffffffffffffffffffffffffffffffffffff168152602001908152602001600020600083815260200190815260200160002060009054906101000a900460ff1660ff16146109ba576040517f08c379a00000000000000000000000000000000000000000000000000000000081526004016109b190612eb2565b60405180910390fd5b6002600460008473ffffffffffffffffffffffffffffffffffffffff1673ffffffffffffffffffffffffffffffffffffffff1681526020019081526020016000206007016000610a08611bc2565b73ffffffffffffffffffffffffffffffffffffffff1673ffffffffffffffffffffffffffffffffffffffff168152602001908152602001600020600083815260200190815260200160002060006101000a81548160ff021916908360ff160217905550600460008373ffffffffffffffffffffffffffffffffffffffff1673ffffffffffffffffffffffffffffffffffffffff16815260200190815260200160002060060160008281526020019081526020016000206002016000815480929190610ad290612f01565b9190505550600460008373ffffffffffffffffffffffffffffffffffffffff1673ffffffffffffffffffffffffffffffffffffffff16815260200190815260200160002060060160008281526020019081526020016000206001016000815480929190610b3e90612f01565b91905055506064600460008473ffffffffffffffffffffffffffffffffffffffff1673ffffffffffffffffffffffffffffffffffffffff16815260200190815260200160002060060160008381526020019081526020016000206001015410610c11576001600460008473ffffffffffffffffffffffffffffffffffffffff1673ffffffffffffffffffffffffffffffffffffffff168152602001908152602001600020600601600083815260200190815260200160002060030160006101000a81548160ff0219169083151502179055505b5050565b6000600154905090565b610c27611bca565b610c316000611c51565b565b7f000000000000000000000000000000000000000000000000000000000000000073ffffffffffffffffffffffffffffffffffffffff163373ffffffffffffffffffffffffffffffffffffffff1614610cb8576040517f5c427cd900000000000000000000000000000000000000000000000000000000815260040160405180910390fd5b600082806020019051810190610cce919061345b565b9050610cda8183611d15565b505050565b60008060009054906101000a900473ffffffffffffffffffffffffffffffffffffffff16905090565b600360009054906101000a900473ffffffffffffffffffffffffffffffffffffffff1673ffffffffffffffffffffffffffffffffffffffff163373ffffffffffffffffffffffffffffffffffffffff1614610d98576040517f08c379a0000000000000000000000000000000000000000000000000000000008152600401610d8f906134f0565b60405180910390fd5b600460008373ffffffffffffffffffffffffffffffffffffffff1673ffffffffffffffffffffffffffffffffffffffff16815260200190815260200160002060000160009054906101000a900460ff16610e27576040517f08c379a0000000000000000000000000000000000000000000000000000000008152600401610e1e90612e46565b60405180910390fd5b600460008373ffffffffffffffffffffffffffffffffffffffff1673ffffffffffffffffffffffffffffffffffffffff16815260200190815260200160002060060160008281526020019081526020016000206001016000815480929190610e8e90612f01565b91905055506064600460008473ffffffffffffffffffffffffffffffffffffffff1673ffffffffffffffffffffffffffffffffffffffff16815260200190815260200160002060060160008381526020019081526020016000206001015410610f61576001600460008473ffffffffffffffffffffffffffffffffffffffff1673ffffffffffffffffffffffffffffffffffffffff168152602001908152602001600020600601600083815260200190815260200160002060030160006101000a81548160ff0219169083151502179055505b5050565b60046000610f71611bc2565b73ffffffffffffffffffffffffffffffffffffffff1673ffffffffffffffffffffffffffffffffffffffff16815260200190815260200160002060000160009054906101000a900460ff16610ffb576040517f08c379a0000000000000000000000000000000000000000000000000000000008152600401610ff290612d6e565b60405180910390fd5b600460008473ffffffffffffffffffffffffffffffffffffffff1673ffffffffffffffffffffffffffffffffffffffff16815260200190815260200160002060000160009054906101000a900460ff1661108a576040517f08c379a000000000000000000000000000000000000000000000000000000000815260040161108190612e46565b60405180910390fd5b600482106110cd576040517f08c379a00000000000000000000000000000000000000000000000000000000081526004016110c49061355c565b60405180910390fd5b6000816040516020016110e091906135b8565b6040516020818303038152906040528051906020012090506040518060800160405280838152602001600081526020016000815260200160001515815250600460008673ffffffffffffffffffffffffffffffffffffffff1673ffffffffffffffffffffffffffffffffffffffff168152602001908152602001600020600601600083815260200190815260200160002060008201518160000190816111869190612be4565b50602082015181600101556040820151816002015560608201518160030160006101000a81548160ff02191690831515021790555090505080600460008673ffffffffffffffffffffffffffffffffffffffff1673ffffffffffffffffffffffffffffffffffffffff1681526020019081526020016000206002018460048110611213576112126135cf565b5b018190555050505050565b600060025490509392505050565b60025481565b6060600460008373ffffffffffffffffffffffffffffffffffffffff1673ffffffffffffffffffffffffffffffffffffffff16815260200190815260200160002060000160009054906101000a900460ff166112c3576040517f08c379a00000000000000000000000000000000000000000000000000000000081526004016112ba90612d02565b60405180910390fd5b600460008373ffffffffffffffffffffffffffffffffffffffff1673ffffffffffffffffffffffffffffffffffffffff168152602001908152602001600020600101805461131090612a07565b80601f016020809104026020016040519081016040528092919081815260200182805461133c90612a07565b80156113895780601f1061135e57610100808354040283529160200191611389565b820191906000526020600020905b81548152906001019060200180831161136c57829003601f168201915b50505050509050919050565b600460006113a1611bc2565b73ffffffffffffffffffffffffffffffffffffffff1673ffffffffffffffffffffffffffffffffffffffff16815260200190815260200160002060000160009054906101000a900460ff1661142b576040517f08c379a000000000000000000000000000000000000000000000000000000000815260040161142290612d6e565b60405180910390fd5b600460008573ffffffffffffffffffffffffffffffffffffffff1673ffffffffffffffffffffffffffffffffffffffff16815260200190815260200160002060000160009054906101000a900460ff166114ba576040517f08c379a00000000000000000000000000000000000000000000000000000000081526004016114b190612e46565b60405180910390fd5b60048360ff161080156114d0575060048260ff16105b61150f576040517f08c379a00000000000000000000000000000000000000000000000000000000081526004016115069061364a565b60405180910390fd5b60008360048461151f919061366a565b61152991906136a7565b9050604051806080016040528061153e611bc2565b73ffffffffffffffffffffffffffffffffffffffff1681526020018560ff1681526020018460ff168152602001838152506004600061157b611bc2565b73ffffffffffffffffffffffffffffffffffffffff1673ffffffffffffffffffffffffffffffffffffffff1681526020019081526020016000206008018260ff16601081106115cd576115cc6135cf565b5b6002020160008201518160000160006101000a81548173ffffffffffffffffffffffffffffffffffffffff021916908373ffffffffffffffffffffffffffffffffffffffff16021790555060208201518160000160146101000a81548160ff021916908360ff16021790555060408201518160000160156101000a81548160ff021916908360ff160217905550606082015181600101908161166f9190612be4565b509050505050505050565b611682611bca565b8060028190555050565b60208484905010156116ca576040517fa512e2ff00000000000000000000000000000000000000000000000000000000815260040160405180910390fd5b6040828290501015611708576040517fa512e2ff00000000000000000000000000000000000000000000000000000000815260040160405180910390fd5b60008435905060008383600090602092611724939291906136e6565b9061172f919061372c565b905060008484602090604092611747939291906136e6565b90611752919061372c565b9050600085856040908092611769939291906136e6565b8080601f016020809104026020016040519081016040528093929190818152602001838380828437600081840152601f19601f82011690508083019250505050505050905060006117bb84848461121e565b905060006002600060081b600154888d8d60209080926117dd939291906136e6565b6040516020016117f296959493929190613880565b60405160208183030381529060405290507f000000000000000000000000000000000000000000000000000000000000000073ffffffffffffffffffffffffffffffffffffffff1663f7e83aee82848b8b604051602001611855939291906138dd565b6040516020818303038152906040526040518363ffffffff1660e01b815260040161188192919061395c565b600060405180830381600087803b15801561189b57600080fd5b505af11580156118af573d6000803e3d6000fd5b5050505050505050505050505050565b6118c7611e0f565b600460008373ffffffffffffffffffffffffffffffffffffffff1673ffffffffffffffffffffffffffffffffffffffff16815260200190815260200160002060000160009054906101000a900460ff16611956576040517f08c379a000000000000000000000000000000000000000000000000000000000815260040161194d90612d02565b60405180910390fd5b61195e611e0f565b60005b6004811015611b0c576000600460008673ffffffffffffffffffffffffffffffffffffffff1673ffffffffffffffffffffffffffffffffffffffff16815260200190815260200160002060020182600481106119c0576119bf6135cf565b5b01549050600460008673ffffffffffffffffffffffffffffffffffffffff1673ffffffffffffffffffffffffffffffffffffffff1681526020019081526020016000206006016000828152602001908152602001600020604051806080016040529081600082018054611a3290612a07565b80601f0160208091040260200160405190810160405280929190818152602001828054611a5e90612a07565b8015611aab5780601f10611a8057610100808354040283529160200191611aab565b820191906000526020600020905b815481529060010190602001808311611a8e57829003601f168201915b5050505050815260200160018201548152602001600282015481526020016003820160009054906101000a900460ff161515151581525050838360048110611af657611af56135cf565b5b6020020181905250508080600101915050611961565b5080915050919050565b611b1e611bca565b600073ffffffffffffffffffffffffffffffffffffffff168173ffffffffffffffffffffffffffffffffffffffff1603611b905760006040517f1e4fbdf7000000000000000000000000000000000000000000000000000000008152600401611b87919061248f565b60405180910390fd5b611b9981611c51565b50565b600360009054906101000a900473ffffffffffffffffffffffffffffffffffffffff1681565b600033905090565b611bd2611bc2565b73ffffffffffffffffffffffffffffffffffffffff16611bf0610cdf565b73ffffffffffffffffffffffffffffffffffffffff1614611c4f57611c13611bc2565b6040517f118cdaa7000000000000000000000000000000000000000000000000000000008152600401611c46919061248f565b60405180910390fd5b565b60008060009054906101000a900473ffffffffffffffffffffffffffffffffffffffff169050816000806101000a81548173ffffffffffffffffffffffffffffffffffffffff021916908373ffffffffffffffffffffffffffffffffffffffff1602179055508173ffffffffffffffffffffffffffffffffffffffff168173ffffffffffffffffffffffffffffffffffffffff167f8be0079c531659141344cd1fd0a4f28419497f9722a3daafe3b4186f6b6457e060405160405180910390a35050565b6000611d1f611bc2565b90506000600460008373ffffffffffffffffffffffffffffffffffffffff1673ffffffffffffffffffffffffffffffffffffffff168152602001908152602001600020905060018160000160006101000a81548160ff02191690831515021790555060405180602001604052806000815250816001019081611da19190612be4565b5060005b6004811015611dda576000801b826002018260048110611dc857611dc76135cf565b5b01819055508080600101915050611da5565b5050505050565b6040518061020001604052806010905b611df9611e3c565b815260200190600190039081611df15790505090565b60405180608001604052806004905b611e26611e80565b815260200190600190039081611e1e5790505090565b6040518060800160405280600073ffffffffffffffffffffffffffffffffffffffff168152602001600060ff168152602001600060ff168152602001606081525090565b60405180608001604052806060815260200160008152602001600081526020016000151581525090565b6000604051905090565b600080fd5b600080fd5b600080fd5b600080fd5b6000601f19601f8301169050919050565b7f4e487b7100000000000000000000000000000000000000000000000000000000600052604160045260246000fd5b611f1182611ec8565b810181811067ffffffffffffffff82111715611f3057611f2f611ed9565b5b80604052505050565b6000611f43611eaa565b9050611f4f8282611f08565b919050565b600067ffffffffffffffff821115611f6f57611f6e611ed9565b5b611f7882611ec8565b9050602081019050919050565b82818337600083830152505050565b6000611fa7611fa284611f54565b611f39565b905082815260208101848484011115611fc357611fc2611ec3565b5b611fce848285611f85565b509392505050565b600082601f830112611feb57611fea611ebe565b5b8135611ffb848260208601611f94565b91505092915050565b60006020828403121561201a57612019611eb4565b5b600082013567ffffffffffffffff81111561203857612037611eb9565b5b61204484828501611fd6565b91505092915050565b600073ffffffffffffffffffffffffffffffffffffffff82169050919050565b60006120788261204d565b9050919050565b6120888161206d565b811461209357600080fd5b50565b6000813590506120a58161207f565b92915050565b6000602082840312156120c1576120c0611eb4565b5b60006120cf84828501612096565b91505092915050565b600060109050919050565b600081905092915050565b6000819050919050565b6121018161206d565b82525050565b600060ff82169050919050565b61211d81612107565b82525050565b600081519050919050565b600082825260208201905092915050565b60005b8381101561215d578082015181840152602081019050612142565b60008484015250505050565b600061217482612123565b61217e818561212e565b935061218e81856020860161213f565b61219781611ec8565b840191505092915050565b60006080830160008301516121ba60008601826120f8565b5060208301516121cd6020860182612114565b5060408301516121e06040860182612114565b50606083015184820360608601526121f88282612169565b9150508091505092915050565b600061221183836121a2565b905092915050565b6000602082019050919050565b6000612231826120d8565b61223b81856120e3565b93508360208202850161224d856120ee565b8060005b85811015612289578484038952815161226a8582612205565b945061227583612219565b925060208a01995050600181019050612251565b50829750879550505050505092915050565b600060208201905081810360008301526122b58184612226565b905092915050565b6000819050919050565b6122d0816122bd565b81146122db57600080fd5b50565b6000813590506122ed816122c7565b92915050565b6000806040838503121561230a57612309611eb4565b5b600061231885828601612096565b9250506020612329858286016122de565b9150509250929050565b6000819050919050565b61234681612333565b82525050565b6000602082019050612361600083018461233d565b92915050565b600067ffffffffffffffff82111561238257612381611ed9565b5b61238b82611ec8565b9050602081019050919050565b60006123ab6123a684612367565b611f39565b9050828152602081018484840111156123c7576123c6611ec3565b5b6123d2848285611f85565b509392505050565b600082601f8301126123ef576123ee611ebe565b5b81356123ff848260208601612398565b91505092915050565b6000806040838503121561241f5761241e611eb4565b5b600083013567ffffffffffffffff81111561243d5761243c611eb9565b5b612449858286016123da565b925050602083013567ffffffffffffffff81111561246a57612469611eb9565b5b612476858286016123da565b9150509250929050565b6124898161206d565b82525050565b60006020820190506124a46000830184612480565b92915050565b6124b381612333565b81146124be57600080fd5b50565b6000813590506124d0816124aa565b92915050565b6000806000606084860312156124ef576124ee611eb4565b5b60006124fd86828701612096565b935050602061250e868287016124c1565b925050604084013567ffffffffffffffff81111561252f5761252e611eb9565b5b61253b86828701611fd6565b9150509250925092565b60008060006060848603121561255e5761255d611eb4565b5b600061256c868287016122de565b935050602061257d868287016122de565b925050604084013567ffffffffffffffff81111561259e5761259d611eb9565b5b6125aa868287016123da565b9150509250925092565b6125bd816122bd565b82525050565b60006020820190506125d860008301846125b4565b92915050565b600082825260208201905092915050565b60006125fa82612123565b61260481856125de565b935061261481856020860161213f565b61261d81611ec8565b840191505092915050565b6000602082019050818103600083015261264281846125ef565b905092915050565b61265381612107565b811461265e57600080fd5b50565b6000813590506126708161264a565b92915050565b600080600080608085870312156126905761268f611eb4565b5b600061269e87828801612096565b94505060206126af87828801612661565b93505060406126c087828801612661565b925050606085013567ffffffffffffffff8111156126e1576126e0611eb9565b5b6126ed87828801611fd6565b91505092959194509250565b60006020828403121561270f5761270e611eb4565b5b600061271d848285016122de565b91505092915050565b600080fd5b600080fd5b60008083601f84011261274657612745611ebe565b5b8235905067ffffffffffffffff81111561276357612762612726565b5b60208301915083600182028301111561277f5761277e61272b565b5b9250929050565b600080600080604085870312156127a05761279f611eb4565b5b600085013567ffffffffffffffff8111156127be576127bd611eb9565b5b6127ca87828801612730565b9450945050602085013567ffffffffffffffff8111156127ed576127ec611eb9565b5b6127f987828801612730565b925092505092959194509250565b600060049050919050565b600081905092915050565b6000819050919050565b61283081612333565b82525050565b60008115159050919050565b61284b81612836565b82525050565b6000608083016000830151848203600086015261286e8282612169565b91505060208301516128836020860182612827565b5060408301516128966040860182612827565b5060608301516128a96060860182612842565b508091505092915050565b60006128c08383612851565b905092915050565b6000602082019050919050565b60006128e082612807565b6128ea8185612812565b9350836020820285016128fc8561281d565b8060005b85811015612938578484038952815161291985826128b4565b9450612924836128c8565b925060208a01995050600181019050612900565b50829750879550505050505092915050565b6000602082019050818103600083015261296481846128d5565b905092915050565b7f4e6f742076657269666965640000000000000000000000000000000000000000600082015250565b60006129a2600c836125de565b91506129ad8261296c565b602082019050919050565b600060208201905081810360008301526129d181612995565b9050919050565b7f4e487b7100000000000000000000000000000000000000000000000000000000600052602260045260246000fd5b60006002820490506001821680612a1f57607f821691505b602082108103612a3257612a316129d8565b5b50919050565b60008190508160005260206000209050919050565b60006020601f8301049050919050565b600082821b905092915050565b600060088302612a9a7fffffffffffffffffffffffffffffffffffffffffffffffffffffffffffffffff82612a5d565b612aa48683612a5d565b95508019841693508086168417925050509392505050565b6000819050919050565b6000612ae1612adc612ad784612333565b612abc565b612333565b9050919050565b6000819050919050565b612afb83612ac6565b612b0f612b0782612ae8565b848454612a6a565b825550505050565b600090565b612b24612b17565b612b2f818484612af2565b505050565b5b81811015612b5357612b48600082612b1c565b600181019050612b35565b5050565b601f821115612b9857612b6981612a38565b612b7284612a4d565b81016020851015612b81578190505b612b95612b8d85612a4d565b830182612b34565b50505b505050565b600082821c905092915050565b6000612bbb60001984600802612b9d565b1980831691505092915050565b6000612bd48383612baa565b9150826002028217905092915050565b612bed82612123565b67ffffffffffffffff811115612c0657612c05611ed9565b5b612c108254612a07565b612c1b828285612b57565b600060209050601f831160018114612c4e5760008415612c3c578287015190505b612c468582612bc8565b865550612cae565b601f198416612c5c86612a38565b60005b82811015612c8457848901518255600182019150602085019450602081019050612c5f565b86831015612ca15784890151612c9d601f891682612baa565b8355505b6001600288020188555050505b505050505050565b7f55736572206e6f74207665726966696564000000000000000000000000000000600082015250565b6000612cec6011836125de565b9150612cf782612cb6565b602082019050919050565b60006020820190508181036000830152612d1b81612cdf565b9050919050565b7f43616c6c6572206e6f7420766572696669656400000000000000000000000000600082015250565b6000612d586013836125de565b9150612d6382612d22565b602082019050919050565b60006020820190508181036000830152612d8781612d4b565b9050919050565b7f4e6f742065787065727400000000000000000000000000000000000000000000600082015250565b6000612dc4600a836125de565b9150612dcf82612d8e565b602082019050919050565b60006020820190508181036000830152612df381612db7565b9050919050565b7f546172676574206e6f7420766572696669656400000000000000000000000000600082015250565b6000612e306013836125de565b9150612e3b82612dfa565b602082019050919050565b60006020820190508181036000830152612e5f81612e23565b9050919050565b7f416c726561647920656e646f7273656400000000000000000000000000000000600082015250565b6000612e9c6010836125de565b9150612ea782612e66565b602082019050919050565b60006020820190508181036000830152612ecb81612e8f565b9050919050565b7f4e487b7100000000000000000000000000000000000000000000000000000000600052601160045260246000fd5b6000612f0c82612333565b91507fffffffffffffffffffffffffffffffffffffffffffffffffffffffffffffffff8203612f3e57612f3d612ed2565b5b600182019050919050565b600080fd5b600080fd5b600081519050612f62816122c7565b92915050565b600081519050612f77816124aa565b92915050565b600067ffffffffffffffff821115612f9857612f97611ed9565b5b602082029050919050565b6000612fb6612fb184612f7d565b611f39565b90508060208402830185811115612fd057612fcf61272b565b5b835b81811015612ff95780612fe58882612f68565b845260208401935050602081019050612fd2565b5050509392505050565b600082601f83011261301857613017611ebe565b5b6004613025848285612fa3565b91505092915050565b600061304161303c84611f54565b611f39565b90508281526020810184848401111561305d5761305c611ec3565b5b61306884828561213f565b509392505050565b600082601f83011261308557613084611ebe565b5b815161309584826020860161302e565b91505092915050565b600067ffffffffffffffff8211156130b9576130b8611ed9565b5b602082029050602081019050919050565b60006130dd6130d88461309e565b611f39565b90508083825260208201905060208402830185811115613100576130ff61272b565b5b835b8181101561314757805167ffffffffffffffff81111561312557613124611ebe565b5b8086016131328982613070565b85526020850194505050602081019050613102565b5050509392505050565b600082601f83011261316657613165611ebe565b5b81516131768482602086016130ca565b91505092915050565b600067ffffffffffffffff82111561319a57613199611ed9565b5b602082029050919050565b6131ae81612836565b81146131b957600080fd5b50565b6000815190506131cb816131a5565b92915050565b60006131e46131df8461317f565b611f39565b905080602084028301858111156131fe576131fd61272b565b5b835b81811015613227578061321388826131bc565b845260208401935050602081019050613200565b5050509392505050565b600082601f83011261324657613245611ebe565b5b60036132538482856131d1565b91505092915050565b6000610240828403121561327357613272612f49565b5b61327e6101a0611f39565b9050600061328e84828501612f53565b60008301525060206132a284828501612f68565b60208301525060406132b684828501612f68565b60408301525060606132ca84828501613003565b60608301525060e082015167ffffffffffffffff8111156132ee576132ed612f4e565b5b6132fa84828501613070565b60808301525061010082015167ffffffffffffffff81111561331f5761331e612f4e565b5b61332b84828501613151565b60a08301525061012082015167ffffffffffffffff8111156133505761334f612f4e565b5b61335c84828501613070565b60c08301525061014082015167ffffffffffffffff81111561338157613380612f4e565b5b61338d84828501613070565b60e08301525061016082015167ffffffffffffffff8111156133b2576133b1612f4e565b5b6133be84828501613070565b6101008301525061018082015167ffffffffffffffff8111156133e4576133e3612f4e565b5b6133f084828501613070565b610120830152506101a082015167ffffffffffffffff81111561341657613415612f4e565b5b61342284828501613070565b610140830152506101c061343884828501612f68565b610160830152506101e061344e84828501613231565b6101808301525092915050565b60006020828403121561347157613470611eb4565b5b600082015167ffffffffffffffff81111561348f5761348e611eb9565b5b61349b8482850161325c565b91505092915050565b7f556e617574686f72697a656420656e646f727365720000000000000000000000600082015250565b60006134da6015836125de565b91506134e5826134a4565b602082019050919050565b60006020820190508181036000830152613509816134cd565b9050919050565b7f496e76616c696420736b696c6c20736c6f740000000000000000000000000000600082015250565b60006135466012836125de565b915061355182613510565b602082019050919050565b6000602082019050818103600083015261357581613539565b9050919050565b600081905092915050565b600061359282612123565b61359c818561357c565b93506135ac81856020860161213f565b80840191505092915050565b60006135c48284613587565b915081905092915050565b7f4e487b7100000000000000000000000000000000000000000000000000000000600052603260045260246000fd5b7f496e76616c696420706f736974696f6e00000000000000000000000000000000600082015250565b60006136346010836125de565b915061363f826135fe565b602082019050919050565b6000602082019050818103600083015261366381613627565b9050919050565b600061367582612107565b915061368083612107565b925082820261368e81612107565b91508082146136a05761369f612ed2565b5b5092915050565b60006136b282612107565b91506136bd83612107565b9250828201905060ff8111156136d6576136d5612ed2565b5b92915050565b600080fd5b600080fd5b600080858511156136fa576136f96136dc565b5b8386111561370b5761370a6136e1565b5b6001850283019150848603905094509492505050565b600082905092915050565b60006137388383613721565b8261374381356122bd565b925060208210156137835761377e7fffffffffffffffffffffffffffffffffffffffffffffffffffffffffffffffff83602003600802612a5d565b831692505b505092915050565b60008160f81b9050919050565b60006137a38261378b565b9050919050565b6137bb6137b682612107565b613798565b82525050565b60007fffffffffffffffffffffffffffffffffffffffffffffffffffffffffffffff0082169050919050565b6000819050919050565b613808613803826137c1565b6137ed565b82525050565b6000819050919050565b61382961382482612333565b61380e565b82525050565b6000819050919050565b61384a613845826122bd565b61382f565b82525050565b600081905092915050565b60006138678385613850565b9350613874838584611f85565b82840190509392505050565b600061388c82896137aa565b60018201915061389c82886137f7565b601f820191506138ac8287613818565b6020820191506138bc8286613839565b6020820191506138cd82848661385b565b9150819050979650505050505050565b60006138e98286613839565b6020820191506138fa82848661385b565b9150819050949350505050565b600081519050919050565b600082825260208201905092915050565b600061392e82613907565b6139388185613912565b935061394881856020860161213f565b61395181611ec8565b840191505092915050565b600060408201905081810360008301526139768185613923565b9050818103602083015261398a8184613923565b9050939250505056fea2646970667358221220961b71e6565814b63eb7b2e57e88ddc3c6944b8b15a11b40af383b7b1178139164736f6c634300081c0033",
  "linkReferences": {},
  "deployedLinkReferences": {}
}